:100000000C9463000C948B000C948B000C9479037B
:100010000C9479030C9479030C948B000C948B0052
:100020000C948B000C948B000C948B000C948B0024
:100030000C948B000C948B000C948B000C948B0014
:100040000C94D7020C948B000C9447030C9421035E
:100050000C948B000C948B000C948B000C948B00F4
:100060000C948B000C948B000000000024002700EF
:100070002A0000000008000201000003040700003D
:1000800000000000000000000000250028002B00F8
:1000900000000000230026002900040404040404D6
:1000A0000404020202020202030303030303010227
:1000B00004081020408001020408102001020408F6
:1000C0001020F303050711241FBECFEFD4E0DEBFDD
:1000D000CDBF11E0A0E0B1E0EEE9FEE002C0059086
:1000E0000D92A232B107D9F724E0A2E2B1E001C03B
:1000F0001D92A837B207E1F710E0C2E6D0E004C0D5
:100100002197FE010E943707C136D107C9F70E9427
:10011000A8040C9442070C940000CF92DF92EF9257
:10012000FF920F931F93CF93DF936C017A018B01A2
:10013000C0E0D0E0CE15DF0589F0D8016D918D01CA
:10014000D601ED91FC910190F081E02DC601099559
:10015000892B11F47E0102C02196ECCFC701DF91FB
:10016000CF911F910F91FF90EF90DF90CF90089566
:10017000FC01918D828D981761F0828DDF01A80FAF
:10018000B11D5D968C91928D9F5F9F73928F90E0D1
:1001900008958FEF9FEF0895FC01918D828D981740
:1001A00031F0828DE80FF11D858D90E008958FEF7D
:1001B0009FEF0895FC01918D228D892F90E0805C46
:1001C0009F4F821B91098F73992708958CEB93E0C1
:1001D0000E94DA0021E0892B09F420E0822F0895A3
:1001E000FC01848DDF01A80FB11DA35ABF4F2C91D4
:1001F000848D90E001968F739927848FA689B789A3
:100200002C93A089B1898C9180648C93938D848D7B
:10021000981306C00288F389E02D80818F7D80834A
:100220000895EF92FF920F931F93CF93DF93EC010A
:1002300081E0888F9B8D8C8D981305C0E889F989A2
:10024000808185FD24C0F62E0B8D10E00F5F1F4FBF
:100250000F731127E02E8C8DE8120CC00FB607FC2F
:10026000FACFE889F989808185FFF5CFCE010E9418
:10027000F000F1CF8B8DFE01E80FF11DE35AFF4F27
:10028000F0820B8FEA89FB898081806207C0EE894A
:10029000FF896083E889F98980818064808381E0B7
:1002A00090E0DF91CF911F910F91FF90EF90089513
:1002B000CF93DF93EC01888D8823C9F0EA89FB890D
:1002C000808185FD05C0A889B9898C9186FD0FC004
:1002D0000FB607FCF5CF808185FFF2CFA889B989D9
:1002E0008C9185FFEDCFCE010E94F000E7CFDF912A
:1002F000CF91089580E090E0892B29F00E94E600DC
:1003000081110C9400000895833081F028F481302D
:1003100099F08230A1F008958730A9F08830B9F0C3
:100320008430D1F4809180008F7D03C08091800063
:100330008F7780938000089584B58F7702C084B54D
:100340008F7D84BD08958091B0008F7703C0809128
:10035000B0008F7D8093B00008951F93CF93DF93FB
:10036000282F30E0F901EE58FF4F8491F901E25552
:10037000FF4FD491F901E656FF4FC491CC23C9F049
:10038000162F81110E948401EC2FF0E0EE0FFF1F69
:10039000EA57FF4FA591B4918FB7F894111105C09A
:1003A0009C91ED2FE095E92302C0EC91ED2BEC93AD
:1003B0008FBFDF91CF911F910895CF93DF9390E08E
:1003C000FC01E255FF4F2491FC01E656FF4F84915A
:1003D000882361F190E0880F991FFC01E859FF4FD5
:1003E000C591D491FC01EA57FF4FA591B4916111D9
:1003F00009C09FB7F8948881209582238883EC9167
:100400002E230BC0623061F49FB7F8943881822F9D
:10041000809583238883EC912E2B2C939FBF06C05D
:100420008FB7F894E8812E2B28838FBFDF91CF916F
:10043000089520916401309165012817390771F4FE
:100440009091620180916301981741F0E0916201FF
:10045000F0E0EE5DFE4F808190E008958FEF9FEF1A
:10046000089508951F93CF93DF93DC015C962D913F
:100470003C915D972115310539F481E090E01396A8
:100480009C938E9312973DC05196ED91FC9152979B
:1004900050969C915097892F80951FB75E964C91EE
:1004A0005E9741FB772770F941FD6095F894408194
:1004B000772311F0492B01C048234083E90121979C
:1004C000F1F748E0508160FF02C0592B01C058236A
:1004D0005083E9012197F1F76695415099F7772309
:1004E00021F090818923808303C08081982B9083A1
:1004F0001FBF5C968D919C915D970197F1F721E06C
:1005000030E0C901DF91CF911F91089520916401DE
:10051000309165012817390771F4809163012091AA
:10052000620190E0805C9F4F821B910960E470E063
:100530000E940F07089580E090E0089520916401E3
:100540003091650128173907B9F4909162018091C3
:100550006301981789F0E0916201F0E0EE5DFE4FD3
:1005600080812091620130E02F5F3F4F2F7333274E
:100570002093620190E008958FEF9FEF0895E0913E
:100580006401F0916501E817F90769F4A389B4895A
:100590009C918589809589238C9310926501109296
:1005A000640181E0089580E008950E943D071F9254
:1005B0000F920FB60F9211242F933F938F939F9317
:1005C000AF93BF938091B8039091B903A091BA0300
:1005D000B091BB033091B70323E0230F2D3720F4F4
:1005E0000196A11DB11D05C026E8230F0296A11D8D
:1005F000B11D2093B7038093B8039093B903A093E0
:10060000BA03B093BB038091B3039091B403A0915C
:10061000B503B091B6030196A11DB11D8093B3033C
:100620009093B403A093B503B093B603BF91AF9179
:100630009F918F913F912F910F900FBE0F901F9020
:1006400018951F920F920FB60F9211242F933F937C
:100650004F935F936F937F938F939F93AF93BF93CA
:10066000EF93FF938CEB93E00E94F000FF91EF91EA
:10067000BF91AF919F918F917F916F915F914F91BA
:100680003F912F910F900FBE0F901F9018951F92C2
:100690000F920FB60F9211242F938F939F93EF9386
:1006A000FF93E091CC03F091CD038081E091D203E0
:1006B000F091D30382FD12C090818091D5038F5FAA
:1006C0008F732091D603821751F0E091D503F0E0AB
:1006D000E454FC4F958F8093D50301C08081FF9136
:1006E000EF919F918F912F910F900FBE0F901F90C0
:1006F00018951F920F920FB60F9211242F933F93CC
:100700004F935F936F937F938F939F93AF93BF9319
:10071000EF93FF93E0916401F0916501309709F444
:1007200051C0968DA685B785858591FF04C09C91A3
:10073000892329F447C09C91892309F043C0A389E8
:10074000B4899C918589809589238C938689978922
:100750000197F1F7608D718DA685B785558538E0D5
:1007600020E0CB010197F1F7822F90E095958795D6
:10077000282F4C91452309F02068315091F7868D40
:1007800081FD20958091630190E001968F739927F8
:1007900030916201381749F0A0916301B0E0AE5D7D
:1007A000BE4F2C938093630103C0868D8160868F3A
:1007B000828D938D0197F1F7A389B4899C918589E6
:1007C000892B8C93FF91EF91BF91AF919F918F9166
:1007D0007F916F915F914F913F912F910F900FBE3D
:1007E0000F901F9018950F931F93CF93DF93109244
:1007F000BF031092BE0388EE93E0A0E0B0E08093C8
:10080000C0039093C103A093C203B093C30326E037
:1008100031E03093BD032093BC0325EC30E03093EE
:10082000C9032093C80324EC30E03093CB0320931A
:10083000CA0320EC30E03093CD032093CC0321ECAD
:1008400030E03093CF032093CE0322EC30E030939E
:10085000D1032093D00326EC30E03093D3032093D0
:10086000D2031092D5031092D6031092D7031092A0
:10087000D80310925C0410925B0480935D04909303
:100880005E04A0935F04B093600486E191E09093CE
:100890005A04809359041092700410926F041092BD
:1008A00072041092710410927404109273041092E6
:1008B000760410927504609177046E7F6260609395
:1008C00077046695617081E068278BE00E94AD0136
:1008D00061E08BE00E94DD0109EB10E0F8018491FA
:1008E00080936904C5EAD0E0FE01849190E0880F0E
:1008F000991F8A579F4FFC012591349130936B04C7
:1009000020936A0460E08BE00E94DD01809177040F
:1009100081FD04C061E08BE00E94AD018BE080931B
:100920006504F801049100936604FE01C491EC2F64
:10093000F0E0EE0FFF1FE057FF4F859194919093E9
:10094000680480936704DF91CF911F910F91089500
:10095000789484B5826084BD84B5816084BD85B59A
:10096000826085BD85B5816085BD80916E008160A6
:1009700080936E001092810080918100826080934C
:10098000810080918100816080938100809180004E
:100990008160809380008091B10084608093B10079
:1009A0008091B00081608093B00080917A00846073
:1009B00080937A0080917A00826080937A0080919F
:1009C0007A00816080937A0080917A0080688093B9
:1009D0007A001092C10062E08CE00E94DD0161E0CB
:1009E0008DE00E94DD0160E08DE00E94AD0110927B
:1009F0007404109273041092720410927104109295
:100A0000700410926F0482E490E0909376048093D7
:100A1000750490916504963108F057C02FE030E0DE
:100A20003093700420936F0420E430E0309372041C
:100A30002093710427E230E0309374042093730410
:100A400020916800983050F031E09E3008F430E09A
:100A500081E001C0880F3A95EAF701C084E0822B5B
:100A600080936800983038F09E3040F0963148F01E
:100A700020E030E008C02DE630E005C02BE630E095
:100A800002C02CE630E030936D0420936C04983063
:100A900030F481E001C0880F9A95EAF70EC0292F43
:100AA00030E09E3018F42850310902C02E50310930
:100AB00081E001C0880F2A95EAF780936E04809147
:100AC0007504909176040197F1F7809173049091E9
:100AD0007404892B21F1809164019091650124E0D7
:100AE00089359207E1F0009711F00E94BF028091D2
:100AF00077048E7F809377041092630110926201D5
:100B000089E594E09093650180936401E0916C0421
:100B1000F0916D04908180916E04892B808360E058
:100B20008BE00E94DD01E091CC03F091CD0382E0E7
:100B30008083E091CC03F091CD031082E091C80353
:100B4000F091C9031082E091CA03F091CB0380E1D8
:100B500080831092D403E091D003F091D10386E01A
:100B60008083E091CE03F091CF0380818061808308
:100B7000E091CE03F091CF03808188608083E09183
:100B8000CE03F091CF03808180688083E091CE0313
:100B9000F091CF0380818F7D808380E090E02FEF04
:100BA000FC01E559FE4F208B118A4296803432E0D9
:100BB0009307B1F7EEE7F0E08491EAEBF0E0D4912F
:100BC000E6EAF0E0C491CC2309F417C181110E9438
:100BD0008401EC2FF0E0EE0FFF1FE057FF4FA591CF
:100BE000B491EC91ED2309F408C112E10FEF80916B
:100BF000B203882369F18CEB93E00E94B800EC010A
:100C00009093B1038093B00397FD12C061E08BE035
:100C10000E94DD016C2F89E594E00E94320260E0C1
:100C20008BE00E94DD016C2F8CEB93E00E941101A0
:100C300089E594E00E949E029093B1038093B003F3
:100C400097FDD8C0682F8CEB93E00E941101D2C0B1
:100C50008CEB93E00E94DA00892B09F478C08CEBCE
:100C600093E00E94B800AC019093AF038093AE0371
:100C70008091AD038823D9F19091AC0320910001BC
:100C800030910101911103C04093AB0318C04D375F
:100C9000510551F4129FF001139FF00D1124E559F5
:100CA000FE4F81898F5F818B129FF001139FF00DA2
:100CB0001124E559FE4FE90FF11D319740839F5FE5
:100CC0009093AC03892F90E0129FF001139FF00DD9
:100CD0001124E559FE4F218930E0285F3F4F281746
:100CE00039072CF41092AD038091AB03808B809177
:100CF000AE039091AF038E37910549F580910001C5
:100D0000909101018F31910524F49C012F5F3F4F99
:100D100002C020E030E0129FF001139FF00D11247B
:100D2000E559FE4F20892F3F91F4019680329105BD
:100D30002CF4909301018093000104C010920101F2
:100D4000109200011092AC0381E08093AD0389E51D
:100D500094E00E948602892B09F44CC089E594E056
:100D60000E949E0290936A0180936901C09168017C
:100D70001C9FE0011124C559DE4F28892F3F69F1DE
:100D800030E08217930749F58091660190916701E1
:100D90008E37910511F561E08BE00E94DD014989F4
:100DA00050E0485F5F4FBE0189E594E00E948D00EE
:100DB00060E08BE00E94DD0180916801189FF001E6
:100DC0001124E559FE4F008B118A8F5F803218F491
:100DD0008093680102C010926801C0916901D091AE
:100DE0006A016C2F8CEB93E00E941101C0936601A5
:100DF000D09367010E947A01FACE81E08093B2031A
:100E000061E08DE00E94AD01F0CE86E191E090932B
:100E10005A048093590489E594E00C94BF0297FB2F
:100E2000072E16F4009407D077FD09D00E942307FF
:100E300007FC05D03EF4909581959F4F08957095DD
:100E400061957F4F0895AA1BBB1B51E107C0AA1FE4
:100E5000BB1FA617B70710F0A61BB70B881F991F5B
:100E60005A95A9F780959095BC01CD010895EE0F94
:100E7000FF1F0590F491E02D099481E090E0F89433
:100E80000C94420710E0C2E6D0E004C0FE010E94CC
:0E0E900037072196C336D107C9F7F894FFCF74
:100E9E00FFFF0000000011018D00DA00B800CC0049
:100EAE0058010000000032028D0086029E021902D7
:020EBE003102FF
:00000001FF
